:03000000020BC12F
:0C0BC100787FE4F6D8FD758128020C084E
:100DBF00011B00012700011900011C00012800017F
:100DCF001A000116010113000108000A1DC0F9A441
:0A0DDF00B0999282F880900118008C
:0D0DEA00C4540F241DF8E6F5807F047E0040
:100DF700EF1FAA0670011E4A600BE4FDEDC3947154
:050E070050EE0D80F724
:010E0C0022C3
:100E2600E4FEC291EF139290EFC313FFD2910EBE70
:020E360008F0C2
:010E38002297
:100E0D00C29200C29100D29200120E26AF05120EB0
:090E1D0026C29200D290D291226B
:100D6700C29200C29100D29200120E26E4FFEDC398
:100D770013FDC291309003430580D2910FBF08EE57
:0C0D8700C29200C29100D291D290AF0540
:010D9300223D
:1008000020B1107F1E7E00120DF720B10630B1FD21
:1008100075130120B5197F1E7E00120DF720B50556
:1008200030B5FD0518E518C394034003E4F518201E
:10083000B6197F647E00120DF720B60530B6FD05AF
:1008400017E517C394034003E4F517E518600302A6
:10085000093AE5177048A2B733F51170417F2C7E35
:1008600001120DF7E5117036E510C4540F75F00A4A
:10087000A4FFE510540F2FF5100510E510B4180370
:10088000E4F510E51075F00A84C454F0FFE5107526
:10089000F00A84E5F02FF510FD7F84120E0DE517A8
:1008A00064017048A2B733F50D70417F2C7E0112B0
:1008B0000DF7E50D7036E512C4540F75F00AA4FF6C
:1008C000E512540F2FF5120512E512B43C03E4F5BE
:1008D00012E51275F00A84C454F0FFE51275F00AAF
:1008E00084E5F02FF512FD7F82120E0DE5176402EC
:1008F0007048A2B733F50A70417F2C7E01120DF7C4
:10090000E50A7036E50EC4540F75F00AA4FFE50E33
:10091000540F2FF50E050EE50EB43C03E4F50EE57D
:100920000E75F00A84C454F0FFE50E75F00A84E5F4
:10093000F02FF50EFD7F80120E0DE51864016003A7
:10094000020A33E517B40303E4F517E5177048A26C
:10095000B733F50970417F2C7E01120DF7E5097060
:1009600036E50CC4540F75F00AA4FFE50C540F2FA4
:10097000F50C050CE50CB46403E4F50CE50C75F01E
:100980000A84C454F0FFE50C75F00A84E5F02FF5F5
:100990000CFD7F8C120E0DE51764017048A2B73371
:1009A000F51470417F2C7E01120DF7E5147036E5C9
:1009B0000BC4540F75F00AA4FFE50B540F2FF50B71
:1009C000050BE50BB40D03E4F50BE50B75F00A849C
:1009D000C454F0FFE50B75F00A84E5F02FF50BFD2C
:1009E0007F88120E0DE51764027048A2B733F51523
:1009F00070417F2C7E01120DF7E5157036E50FC4AE
:100A0000540F75F00AA4FFE50F540F2FF50F050FD3
:100A1000E50FB41F03E4F50FE50F75F00A84C45425
:100A2000F0FFE50F75F00A84E5F02FF50FFD7F86E6
:100A3000120E0DE51864026003020AF0E516604C20
:100A400075A001851D80120DF375A002851D801211
:100A50000DF375A0047580BF120DF375A008851DF8
:100A600080120DF375A010851D80120DF375A02066
:100A70007580BF120DF375A040851D80120DF375B2
:100A8000A080851D80120DF3151680B0E517701C2F
:100A9000A2B733F51170157F2C7E01120DF7E51109
:100AA000700A051BE51BB41803E4F51BE517B40138
:100AB0001DA2B7E433F50D70157F2C7E01120DF7E2
:100AC000E50D700A0527E527B43C03E4F527E51793
:100AD000B4021DA2B7E433F50A70157F2C7E011213
:100AE0000DF7E50A700A0519E519B43C03E4F51998
:010AF00022E3
:100D94007F85120D678F107F83120D678F127F81FD
:100DA400120D678F0E7F8D120D678F0C7F89120DC8
:0B0DB400678F0B7F87120D678F0F22E7
:100D190075A001E510120DEA75A002E510120DEBA0
:100D290075A0047580BF120DF375A008E512120DA8
:100D3900EA75A010E512120DEB75A0207580BF129F
:100D49000DF375A040E50E120DEA75A080E50E546D
:0E0D59000F241DF8E6F5807F047E00020DF7E2
:100CBB0075A001851F80120DF375A002851D801292
:100CCB000DF375A004E50C120DEA75A008E50C54A4
:100CDB000F241DF8E6547F120DF175A010E50B12D1
:100CEB000DEA75A020E50B540F241DF8E6547F1276
:100CFB000DF175A040E50F120DEA75A080E50F54BC
:0E0D0B000F241DF8E6F5807F047E00020DF730
:100C4D0075A001E51B75F00A84120DED75A002E586
:100C5D001B75F00A84741D25F0120DEF75A0047537
:100C6D0080BF120DF375A008E52775F00A84120DEB
:100C7D00ED75A010E52775F00A84741D25F0120D91
:100C8D00EF75A0207580BF120DF375A040E51975A5
:100C9D00F00A84120DED75A080E51975F00A8474C3
:0E0CAD001D25F0F8E6F5807F047E00020DF7AD
:090E3900B2977F027E00020DF762
:100AF1007D127F84120E0DE4FD7F82120E0D7F8028
:100B0100120E0D7D187F8C120E0D7D067F88120E40
:100B11000D7D117F86120E0DC296120800120D94E2
:100B2100E51B75F00A84C454F0FFE51B75F00A84D7
:100B3100E5F02FF51CE52775F00A84C454F0FFE5B4
:100B41002775F00A84E5F02FF528E51975F00A8478
:100B5100C454F0FFE51975F00A84E5F02FF51AE5A4
:100B61001CB5100CE528B51207E51AB50E02D29690
:100B7100E513B4010EC2960508E508B40505E4F5D0
:100B810008F513E5187003120D19E518B4010312E5
:100B91000CBBE518B40203120C4DE51270047F0181
:100BA10080027F00E50EC3940550047E0180027E21
:100BB10000EE5F6006120E39020B1BD297020B1B6F
:100BCD00020AF1E493A3F8E493A34003F68001F243
:100BDD0008DFF48029E493A3F85407240CC8C33329
:100BED00C4540F4420C8834004F456800146F6DFF8
:100BFD00E4800B0102040810204080900DBFE47EBC
:100C0D00019360BCA3FF543F30E509541FFEE493EC
:100C1D00A360010ECF54C025E060A840B8E493A3B3
:100C2D00FAE493A3F8E493A3C8C582C8CAC583CADE
:100C3D00F0A3C8C582C8CAC583CADFE9DEE780BE96
:010DE9000009
:00000001FF
